:100000000C94B6020C94FD020C94FD020C94FD02BB
:100010000C94FD020C94FD020C94FD020C94FD0264
:100020000C94FD020C94FD020C94D9290C948E289A
:100030000C94161E0C94FD020C94FD020C94FD020F
:100040000C94FD020C94FD020C94FD020C94FD0234
:100050000C94FD020C94D51D0C94FD020C94FD0231
:100060000C94FD020C94FD020C94FD020C94FD0214
:100070000C94FD020C94FD020C94FD020C94FD0204
:100080000C94FD020C94FD020C94FD020C94FD02F4
:100090000C94FD020C94FD020C94FD020C94FD02E4
:1000A0000C94FD020C94FD020C94FD0245094509D7
:1000B0007F097F09D809F4098A0B8A0BFF09DD0A39
:1000C000EE0AEE0A54237B231C257B231C25C32325
:1000D000E6231C25D524E9245625562569256925BE
:1000E0005F256925692569255625562564256925D5
:1000F000692564257C00A800AC007D00AB00075199
:10010000AE0028002A00500051004F005200075155
:100110002C002800625D000000000000615D0751B6
:10012000605D5F5D6F007000710072006E000751CE
:100130006D007300CA5CC85CC25CC15CC45C0751E2
:10014000C35CE1007C007E007A007D007B000751EB
:100150007600AE0000000000000000000000075123
:100160000000005C125013501450155011500751EC
:10017000105016501E0F0500047F3F1F6432146498
:100180003214783C1E1E140A050001010101010110
:10019000010101020202020202020202030303033E
:1001A000030303030404040404040405050505050E
:1001B00006060606060707070707080808080909CC
:1001C00009090A0A0A0B0B0B0C0C0C0D0D0D0E0E77
:1001D0000E0F0F0F1010111111121213131414150A
:1001E0001516161717181819191A1A1B1B1C1D1D7E
:1001F0001E1E1F20202122222324242526262728D4
:1002000029292A2B2C2D2D2E2F3031323233343503
:10021000363738393A3B3C3D3E3F40414243444506
:10022000464748494A4C4D4E4F50515354555658E5
:10023000595A5B5D5E5F616264656668696B6C6D8F
:100240006F7072737577787A7B7D7E808283858705
:10025000888A8C8E8F91939596989A9C9EA0A2A343
:10026000A5A7A9ABADAFB1B3B5B7BABCBEC0C2C448
:10027000C6C9CBCDCFD1D4D6D8DBDDDFE2E4E7E908
:10028000EBEEF0F3F5F8FAFDFFFFAA7F55402223CD
:10029000252628292A2C2D2F3032333536383A3B63
:1002A0003D3E4042434547494A4C4E5051535557B5
:1002B000595A5C5E6062646668696B6D6F717375D4
:1002C00077797B7D7F81838587898A8C8E909294D4
:1002D00096989A9C9E9FA1A3A5A7A8AAACAEAFB1E1
:1002E000B3B4B6B8B9BBBCBEBFC1C2C3C5C6C7C92B
:1002F000CACBCCCDCED0D1D2D2D3D4D5D6D7D7D8E5
:10030000D9D9DADADBDBDBDCDCDCDCDCDDDDDDDD36
:10031000DCDCDCDCDCDBDBDBDADAD9D9D8D7D7D63E
:10032000D5D4D3D2D2D1D0CECDCCCBCAC9C7C6C5F5
:10033000C3C2C1BFBEBCBBB9B8B6B4B3B1AFAEAC3B
:10034000AAA8A7A5A3A19F9E9C9A98969492908EE6
:100350008C8A89878583817F7D7B79777573716FBF
:100360006D6B6968666462605E5C5A59575553519B
:10037000504E4C4A4947454342403E3D3B3A383651
:10038000353332302F2D2C2A29282625232205010A
:100390000902A10185020901A10005091901290825
:1003A0001500250195087501810205010930093103
:1003B0001581257F95027508810609381581257FED
:1003C000950175088106050C0A38021581257F956F
:1003D0000175088106C0C005010980A101850319C6
:1003E000012AB700150126B700950175108100C0DC
:1003F000050C0901A101850419012AA00215012695
:10040000A002950175108100C005010906A10185B2
:1004100005050719E029E7150025019508750181F3
:10042000020507190029EF1500250195F0750181D6
:1004300002050819012905950575019102950175B7
:10044000039101C005010906A101050719E029E78B
:100450001500250195087501810295017508810136
:100460000507190029FF150026FF0095067508816C
:100470000005081901290595057501910295017579
:10048000039101C009029F00040100A0FA090400C1
:1004900000010301010009211101000122400007B0
:1004A00005810308000A0904010001030000000996
:1004B000211101000122B6000705820320000A086D
:1004C0000B0202010100000904020000010100000A
:1004D00009240100010900010309040300020103CA
:1004E000000007240100014100062402010100066A
:1004F000240202020009240301030102010009246D
:100500000302040101010009050402400005000086
:1005100005250101010905830240000500000525AC
:100520000101031201100100000008A803000001EE
:1005300000010200011A036E0061006E006F002EC0
:1005400000200073006C0069006400650072000008
:100550000014036B0065006500620077006500729F
:10056000006B002E000000040309040011241FBECC
:10057000CFEFDAE0DEBFCDBF04B603FE27C0809127
:10058000190490911A04A0911B04B0911C048730A7
:10059000904BA740B04BD1F41092190410921A045A
:1005A00010921B0410921C0414BE84B7877F84BF72
:1005B0000FB6F894A89580916000886180936000E0
:1005C000109260000FBEE0E0F8E3099511E0A0E0B2
:1005D000B1E0E6EDF8E502C005900D92AC39B10747
:1005E000D9F724E0ACE9B1E001C01D92A931B2070E
:1005F000E1F70E94FA0B0C94692C0C9400008F9286
:100600009F92AF92BF92CF92DF92EF92FF920F93A1
:100610001F93CF93DF93CDB7DEB72A970FB6F89429
:10062000DEBF0FBECDBFFC01D080118183819481DC
:10063000892B39F01F3F39F491E00FEFD01203C03E
:1006400003C091E001C090E090FF02C00C94E70B62
:100650007F0185E0DE01169601900D928A95E1F703
:10066000F70122818E819F81222349F00E947E1F03
:10067000082F682F8E819F810E94F61F03C00E9461
:10068000CB1F082FE12FF0E0E00FF11DE00FF11D6F
:10069000EE0FFF1FEE0FFF1FED0DF11DEE0FFF1F01
:1006A000EC50FF4F059114910036FDE51F07B1F0A6
:1006B00028F40F353DE5130751F027C001368DE5CD
:1006C000180799F002369DE51907B1F01EC0F70131
:1006D0008281882309F4D4C28EE314C0F701828199
:1006E000882309F4CDC28FE30DC0F70182818823EE
:1006F00009F4C6C280E406C0F7018281882309F4A8
:10070000BFC281E480930401BBC20F3AFCE51F071E
:1007100008F047C00F392CE5120708F0B0C10039C6
:100720003CE51307F8F403388CE5180708F009C115
:1007300001389CE5190758F40737ECE51E0708F067
:10074000CFC00F32FCE51F0708F06EC0C6C30138EA
:100750002CE5120709F4D0C002383CE5130709F470
:10076000D8C0BBC30D398CE5180780F402399CE56D
:10077000190708F034C10039ECE51E0709F4F1C08F
:100780000139FCE51F0709F402C1A7C30D392CE5A7
:10079000120709F437C10E393CE5130709F453C1B8
:1007A0009CC3053B8CE5180709F4E8C1F8F4013B4C
:1007B000ECE51E0709F4AAC158F40F3A2CE512071C
:1007C00009F472C1003B3CE5130709F480C185C3FD
:1007D000F70122818091600290916102033BFCE568
:1007E0001F0709F4B3C108F0BDC1A1C1083B8CE5E6
:1007F000180709F4DFC158F4063BECE51E0709F4BD
:10080000BDC1073BFCE51F0709F4CAC166C30A3B2B
:100810002CE5120709F405C208F4ECC10B3B8CE58A
:10082000180709F41AC259C390916002892F881FD2
:100830008827881F409161024770440F482B892FF9
:100840008F77F701928151EDC52EC00ED12C9923DF
:1008500051F110915F02912F9F7015951595159587
:1008600015951F52FCE09F9F100D1124100F212F92
:100870002F774069E0912A03F0912B03082F63E062
:1008800070E08AE293E00995F601E056FE4FDF0141
:10089000A85BBF4F8C918F5F8C9380818F3F09F055
:1008A00077C7108375C7860100561E4F6801F8018F
:1008B0002081E85BFF4F908191509083911168C730
:1008C0002F774068E0912A03F0912B03082F63E013
:1008D00070E08AE293E009958FEFF601808358C7B4
:1008E000F7018281882309F453C70757802F8F703F
:1008F00000915F02007F31C0F7018281882309F4F3
:1009000047C720915F02822F8F7009F441C7815F32
:1009100010C0F7018281882309F43AC720915F0251
:10092000822F8F70482F50E0493051050CF030C7AE
:100930008F5F982F9F70822F807F892B80935F021B
:1009400027C7F7018281882309F422C70958802F1D
:100950008295807F00915F020F70082B00935F02E9
:1009600017C7F7018281882309F412C720915F021B
:10097000822F85958595859585958B3F0CF408C7C5
:10098000815F982F9295907F822F8F70D6CFF7013D
:100990008281882309F4FCC620915F02822F85950D
:1009A00085958595859586300CF0F2C691E0980F77
:1009B0009295907F9595959595959595392F32952A
:1009C000307F2F70232B20935F0218160CF0E0C6A7
:1009D00097FFDEC68295807F922F9F70AECFF70182
:1009E0008281882309F4D4C602598CE0089F002D27
:1009F0001124802F8F77009160020078082B0093DC
:100A00006002C6C6F7018281882309F4C1C69091AD
:100A10006002892F8F77282F30E02115310509F4E6
:100A2000B7C690788F3719F4892F856706C02D30A7
:100A3000310534F08D508F77892B80936002A8C6E2
:100A400090936002A5C6F7018281882309F4A0C6AD
:100A500020916002822F8F77482F50E04F37510549
:100A600009F496C64337510534F4835F982F9F7776
:100A7000822F8078E1CF2F672093600289C6F7012B
:100A80008281882309F484C60F598091600200FB9B
:100A900087F9809360020695077080916102887FD4
:100AA000082B0093610274C6F7018281882309F440
:100AB0006FC630916002932F991F9927991F20913B
:100AC0006102822F8770880F892B815F12C0F70126
:100AD0008281882309F45CC630916002932F991FAC
:100AE0009927991F20916102822F8770880F892B87
:100AF0008F5F982F9F7080FB37F930936002969537
:100B0000822F887F892B8093610242C6F701828100
:100B1000882309F43DC690916002991F9927991F77
:100B2000809161028770880F40E06BE70BC0222341
:100B300011F04FE701C040E0881F8827881F977099
:100B4000990F60E4892B0E940D2122C6222311F007
:100B50004FE701C040E0881F8827881F9770990FD2
:100B600061E4F0CF222311F04FE701C040E0881F7D
:100B70008827881F9770990F62E4E4CFF70182817C
:100B8000882311F04FE701C040E090916002991F67
:100B90009927991F809161028770880F63E4D2CFF3
:100BA000F7018281882311F081E001C08FEF8093EB
:100BB0005E02EEC5F7018281882309F4E9C58091C0
:100BC0006102282F2695269526952F7091E0920F89
:100BD0009F70990F990F990F8778892B80936102E5
:100BE000982F987709F0D4C5220F220F220F87780B
:100BF000822B89CFF7018281882309F4C9C520910E
:100C00006102822F8695869586958F7009F4C0C5FE
:100C1000815F8F70982F990F990F990F822F877886
:100C200071CFF7018281882361F090916002991F52
:100C30009927991F809161028770880F60E070EE9C
:100C40001BC090916002991F9927991F80916102A2
:100C50008770880F60E070E00FC0F7018281882301
:100C600081F390916002991F9927991F80916102E9
:100C70008770880F6FEF7FE1892B0E94202188C544
:100C8000F7018281882309F48DC110929E01023000
:100C9000FCE51F0708F470C106312CE5120730F09F
:100CA000C8018B5F9C45099708F066C10E949C1E95
:100CB000909335028093340200313CE5130709F428
:100CC000C3C008F041C008309CE5190709F49AC078
:100CD000F0F40430FCE51F0709F487C068F4023023
:100CE0003CE5130709F477C003301C4509F0E5C063
:100CF00080913402826076C006309CE5190709F4C1
:100D00006EC008F07BC08091340288606BC00C30EC
:100D1000FCE51F0709F485C068F40A303CE51307B9
:100D200009F474C008F079C00E9439278091340218
:100D3000806858C00E309CE5190709F476C008F0A9
:100D40007FC0809134028BC00C3FFCE51F0709F483
:100D50004FC018F503313CE5130709F47DC078F462
:100D600001319CE5190709F473C002311C4509F0F3
:100D7000A4C00E943927809134028F7733C0053197
:100D8000FCE51F0709F472C008F486C00B3F1C4540
:100D900009F093C0809135023EC001158DE518071A
:100DA00009F45FC058F40E3FECE51E0709F444C097
:100DB00008F43FC08091350282602DC002302DE5DD
:100DC000120709F475C008F45DC003301D4509F031
:100DD00074C060E06EC080913402816003C0809175
:100DE000340280618093340268C08091340211C063
:100DF000809135028260809335025FC08091340219
:100E00008062F0CF809134028064ECCF8091340214
:100E100088608460E7CF8160EECF809134028E7F5E
:100E2000E1CF809134028D7FDDCF80913402877FC6
:100E3000D9CF8091350218C0809135028D7FDBCFEC
:100E4000809134028F7ECECF809134028F7DCACFC5
:100E5000809134028F7BC6CF80913402877F8B7F55
:100E6000C1CF809135028D7F8E7FC5CF80913402B6
:100E700082FB222720F991E0922790FB82F990FBD8
:100E800083F9B0CF80913502982F909591708E7F25
:100E9000892B90FB81F9AFCF0E94392780913402D2
:100EA00087FB222720F991E0922790FB87F99ACFC0
:100EB00061E08EE090E00E947C2B60913402109102
:100EC000350284E090E00E947C2B612F82E290E06A
:100ED0000E947C2B0E9439275BC4043FFCE51F075E
:100EE000A1F406E221EE40EE64EF7CE50AC0083D85
:100EF0009CE5190709F0C4CE06E221EE41EE68ED4B
:100F00007CE5C7010E94C11743C4053F2CE51207C9
:100F1000A0F4093D3CE5130731F407E225EE45EE68
:100F200069ED7CE5EECF0A3D8CE5180701F708E294
:100F300021E045EE6AED7CE5E4CF063FECE51E07D7
:100F400031F406E221EE42EE66EF7CE5DACF063FB1
:100F5000FCE51F0730F407E225EE44EE65EF7CE583
:100F6000D0CF073F2CE5120709F08ACE07E225EE25
:100F700046EE67EF7CE5C5CF8091F60206313CE591
:100F8000130709F58A7A91E009F490E090939F01A4
:100F9000882311F065E301C069E286E992E00E94CE
:100FA000671E0EC006311C4509F029C180919F01C2
:100FB000882309F40AC465E386E992E00E943F1E93
:100FC0000E941E1FE5C382720D3C9CE5190709F4BF
:100FD000C4C008F045C0073CFCE51F0709F4A9C0E0
:100FE000D8F4043C3CE5130709F499C030F4033C01
:100FF000ECE51E0709F46EC0D1C0053CFCE51F07F7
:1010000009F492C0063C2CE5120709F0C7C048E974
:1010100051E161EA71E1A5C00A3C3CE5130709F41E
:1010200092C078F4083CECE51E0709F487C0093C3F
:10103000FCE51F0709F0B2C04CE851E160E871E13E
:1010400090C00B3C2CE5120709F482C00C3C3CE537
:10105000130709F0A3C04FEC51E160EE71E181C0CC
:10106000023D8CE5180709F488C0A0F40F3CECE5BC
:101070001E0709F47CC008F477C0003D2CE5120778
:1010800009F478C0013D3CE5130709F087C06EE024
:1010900089E081C0053D8CE5180709F474C068F447
:1010A000033DECE51E0709F46BC0043DFCE51F079A
:1010B00009F074C061E088E16BC0063D2CE51207C1
:1010C00009F464C00E353DE5130709F067C06AE214
:1010D00085E261C080914A0280FF1BC08E7F8093B1
:1010E0004A0260914A0270914B0280914C029091A9
:1010F0004D020E94BD11109250028FEF90E7E2E086
:1011000081509040E040E1F700C000000E947A1852
:101110003FC3816080934A0261E0869539C04CE20A
:1011200052E165E372E11DC045E352E16CE272E118
:1011300018C041EA51E168E971E113C040E851E1AA
:101140006CE871E10EC048E651E164E771E109C065
:1011500044E751E168E671E104C040EE51E16FEC13
:1011600071E10E945E1814C361E081E011C065E086
:1011700082E011C068E086E00EC064E18FE00BC041
:1011800067E185E108C062E289E105C061E083E2D0
:101190000E94F111FDC20E944C18FAC20B35FDE508
:1011A0001F0741F150F401153CE51307A9F00F3D6D
:1011B0001C4529F50E94AD1EEBC20C359DE51907B3
:1011C000D9F00D351D45D9F48091350282FB882771
:1011D00080F991E0892711C00E943927FFEF04E3CD
:1011E0001CE0F15000401040E1F700C000000E94F8
:1011F000B11DCEC281E001C080E00E94641FF701F2
:10120000828100811181882349F0C8010E947E1FDC
:10121000D82E682FC8010E94F61F04C0C8010E9482
:10122000CB1FD82EB8018D2D0E941E158C01982E33
:10123000F701D280A580A2944FE0A4228091F3020E
:10124000877099F0DD2089F0812F807F803421F034
:1012500080E2800F883048F082E00E944F20809129
:10126000F3028770CC24C3948111C12CB12EB294A7
:101270003FE0B3228B2D90E08C30910508F04AC2FC
:10128000FC01EA5AFF4F0C94472C812F807F1F707E
:10129000882311F01295107FDD20B9F0112309F495
:1012A00024C280E2800F883010F0911006C0809137
:1012B000F602182B1093F60205C08091F502182B48
:1012C0001093F5020E941E1F10C2802F0E946327F8
:1012D000112309F41FC2005E1095083010F0911020
:1012E00006C08091F60218231093F60205C0809183
:1012F000F50218231093F5020E941E1F0BC2812FC6
:10130000807F1F70803211F01295107F992021F09C
:10131000F1E09F1611F130C0DD20B1F0AA2081F07C
:1013200001E0A0120DC08091350282FDF3C18091D1
:10133000F702182B181709F4EDC11093F702EAC150
:101340008091F702812B10C0AA2021F021E0A21683
:1013500009F4E0C10E94181F27C0DD2041F035E0EC
:101360003A1508F4D7C1812F0E945927D3C184E0D0
:101370008A1508F4CFC118C0DD2049F0AA2099F3DE
:10138000F701858180FFB1C18F708583ECCFAA20E2
:1013900059F0093309F0BBC1FFEF17EE23E0F1501C
:1013A00010402040E1F7B1C1812F0E944E27B2C109
:1013B000812F86958695837019F0813059F0AAC1E6
:1013C000DD2019F0C801937002C080E090E00E9417
:1013D0009F17A6C1DD2019F0C801937002C080E0FC
:1013E00090E00E9489179CC1802FDD2019F00E9497
:1013F000E11302C00E9428130E94FE1291C1812FA6
:10140000837009F069C0D11089C1902F929596958B
:101410009770990F990F802F8F70882E912CA12C87
:10142000B12C092E04C0880C991CAA1CBB1C0A9460
:10143000D2F704FF12C04FE050E060E070E004C05B
:10144000440F551F661F771F9A95D2F7DB01CA011B
:1014500080959095A095B09503C080E090E0DC0168
:1014600016951695412F4370423019F1C8F400913A
:10147000F8021091F9022091FA023091FB024130FA
:1014800059F088299929AA29BB29BC01CD016023DB
:101490007123822393230AC0802A912AA22AB32A85
:1014A000BC01CD01682979298A299B290E948D20B8
:1014B00035C188299929AA29BB290091F8021091E0
:1014C000F9022091FA023091FB02BC01CD016027A4
:1014D000712782279327EACFDD2019F0812F8170B1
:1014E00001C08695882309F419C1902F929596958D
:1014F0009770990F990F802F8F70882E912CA12CA7
:10150000B12C092E04C0880C991CAA1CBB1C0A947F
:10151000D2F704FF12C04FE050E060E070E004C07A
:10152000440F551F661F771F9A95D2F7DB01CA013A
:1015300080959095A095B09503C080E090E0DC0187
:1015400016951695412F43704230D9F068F50091F9
:101550003002109131022091320230913302413039
:1015600059F088299929AA29BB29BC01CD016023FA
:101570007123822393231EC0802A912AA22AB32A90
:1015800013C088299929AA29BB29009130021091FA
:1015900031022091320230913302BC01CD0160272B
:1015A00071278227932706C0BC01CD0168297929BC
:1015B0008A299B290E942020B1C01F70DD2039F0AC
:1015C000812F0E946C20802F0E945927A7C0802F56
:1015D0000E944E27812F0E942A20A0C0802F32EF28
:1015E000931609F440C0391538F090EF991661F060
:1015F000E1EF9E1699F174C0F3EF9F16D9F124EF35
:10160000921609F44EC06CC0DD2019F134E03A1591
:1016100008F480C01F7181E090E0A0E0B0E0AC0170
:10162000BD0104C0440F551F661F771F1A95D2F7DE
:101630008091300290913102A0913202B091330238
:101640008A019B01082719272A273B27C901B801CE
:1016500025C025E02A1508F45DC0DCCFDD2029F087
:10166000812F8F7130C0DD20D9F3812F8F710E94BF
:101670002A2050C0DD2079F01F7181E090E0A0E0C9
:10168000B0E0BC01CD0104C0660F771F881F991F11
:101690001A95D2F703C060E070E0CB010E942020D1
:1016A00039C0DD2099F01F71812F0E946C2080913C
:1016B000350282FD07C038E0139FC001112483600A
:1016C0008093F302812F0E946C2024C081E00E944D
:1016D0004F2081E08A15F0F482E00E944F201AC06A
:1016E000DD2039F0AA2009F4BBCF802F0E94CA2741
:1016F00011C0AA2009F4B9CF893349F49FEFE7EE6E
:10170000F3E09150E040F040E1F700C00000802F8E
:101710000E94632788EF8B0D843010F40E94B51768
:10172000CC20A9F08091F30280FD11C0F701128254
:101730008595859585950E946C20C7010E94FF02C2
:101740008091F3028595859585950E942A2085E0F4
:10175000F701DE01119601900D928A95E1F78981DA
:101760009A810E94CB1FE82FF0E0EE0FFF1F8A81C5
:10177000E80FF11DEE0FFF1FEE0FFF1F8981E80F2D
:10178000F11DEE0FFF1FEC50FF4F859194911FC08C
:101790008091F3028770D9F0F70182818823B9F034
:1017A00082E02A960FB6F894DEBF0FBECDBFDF9160
:1017B000CF911F910F91FF90EF90DF90CF90BF904E
:1017C000AF909F908F900C944F2069E2F5CB2A96B2
:1017D0000FB6F894DEBF0FBECDBFDF91CF911F9142
:1017E0000F91FF90EF90DF90CF90BF90AF909F90C0
:1017F0008F900895CF93DF93CDB7DEB760970FB684
:10180000F894DEBF0FBECDBF84E080935F028FE708
:10181000809360028091610280788064809361028D
:10182000E0EAF1E088EE91E02FEF2193DF01A95B80
:10183000BF4F1C928E179F07C1F710925D02109246
:101840005E02109264021092630210924F03109293
:1018500051031092500380EC8093140482E593E0CE
:10186000909316048093150410921304109212049E
:1018700010922F0310922E03109231031092300316
:1018800010923303109232031092350310923403F6
:1018900010923703109236031092390310923803D6
:1018A00010923B0310923A0310923D0310923C03B6
:1018B00010923F0310923E03109241031092400396
:1018C0001092430310924203109245031092440376
:1018D000109249031092480384E59DE190932B03F5
:1018E00080932A0380EA9CE190934B0380934A0300
:1018F0008CED9BE190934703809346038BED9BE136
:1019000090932D0380932C0384B7877F84BF0FB6F9
:10191000F894A8958091600088618093600010928F
:1019200060000FBE90E080E80FB6F89480936100ED
:10193000909361000FBE85B7806885BF85B78068CA
:1019400085BF8DED9BE190939D0180939C010E944A
:10195000D2280E9478298091E20084608093E2007E
:101960007894809120038823A1F01091E9001F70E2
:101970009091EC00892F817090FD80E8182B1092D7
:10198000E9008091E80083FD0E9470221F7010938F
:10199000E90082E084BD93E095BD9AEF97BD809306
:1019A0006E0080EF0E943C1481EF0E943C1480E3A3
:1019B0000E943C1481E30E943C1482E30E943C1488
:1019C00083E30E943C14109236021092420210925D
:1019D00037021092430280E090E00E94762B8A3E0C
:1019E0009E4F11F00E94AD1E82E090E00E94682B95
:1019F000809366020E949C1E90933502809334026D
:101A00000E9453148FE39CE90197F1F700C0000096
:101A10000E9453148091420280FF08C06FEF7FEF55
:101A200080E090E00E949A2B0E94B11D83E090E03C
:101A30000E94682B682F70E080E090E00E948D206B
:101A400080913802811136C080E090E00E94762BB0
:101A50008A3E9E4F21F00E94AD1E0E943F1288E0F8
:101A600090E00E94702B60934A0270934B02809327
:101A70004C0290934D026E7F71F40E943F1288E0F9
:101A800090E00E94702B60934A0270934B02809307
:101A90004C0290934D020E94AA1110925002809124
:101AA0004A0280FF04C060E086950E94F11181E047
:101AB0008093380281E191E090933A028093390259
:101AC00098E1892E912C20E4E22EFF24F3945524F2
:101AD000539480912003853009F06FC000E112E13A
:101AE00080912003853009F053C080912003843019
:101AF00009F43DC01092500280913D02811116C040
:101B000050923D0280914A02982F917090933C022E
:101B10008E7F80934A02FFEF20E732E0F1502040B1
:101B20003040E1F700C000000E947A1810923B029A
:101B30000FB6F894A895809260000FBEE092600006
:101B400083B7817F846083BF83B7816083BF7894CC
:101B5000889583B78E7F83BF0FB6F894A895809140
:101B60006000886180936000109260000FBE8091D9
:101B70001F03882309F4B4CF0E94531480914202BA
:101B8000811143C380914302882309F4A9CF3DC347
:101B90000E9439270E94B51710923D0280913C02A5
:101BA000882349F080914A02816080934A0260E074
:101BB00086950E94F1110E9464180E945314882394
:101BC00059F08FB7F89440913E0250913F026091D6
:101BD0004002709141028FBFA2E4B2E0E7E6F2E07A
:101BE00000E010E0302F2D919191922721F180E0BB
:101BF000DD24D394492F4D21D1F08F8338872D21B7
:101C000081E009F480E089870E940A1E8160782FB4
:101C10009B878A874F81588569858B850E94EB1643
:101C2000F801E959FD4F8081D826D08219C08F5F15
:101C3000DD0C8430F9F60F5F1F4F0230110591F66D
:101C40008FEF8C878D871E860E940A1E8160782FF9
:101C5000988B8F874C855D856E8588890E94EB16F1
:101C600080915002882309F4A5C080914F02E09131
:101C70004A02E695E81BE0934602823059F4F0E010
:101C8000EB57FE4FE4910E2F10E087EDC82E86E152
:101C9000D82E6BC0863059F4F0E0EE57FE4FE49139
:101CA0000E2F10E0B7ECCB2EB6E1DB2E5EC08930F4
:101CB00061F4E695F0E0E158FE4FE4910E2F10E05C
:101CC000A7ECCA2EAAE1DA2E50C08F3061F4E69557
:101CD000F0E0E458FE4FE4910E2F10E0F3E6CF2E33
:101CE000FAE1DF2E42C0853159F4F0E0E758FE4FAB
:101CF000E4910E2F10E0E5E1CE2EEAE1DE2E35C0B4
:101D00008831F9F0833249F4E7E7F1E00591149165
:101D100072E0C72E7BE1D72E28C08432C9F085320D
:101D2000F1F48E2F63E00E94132CE92FF0E0EC58C1
:101D3000FE4FE4910E2F10E060EBC62E68E1D62E28
:101D400014C008E210E05BE8C52E59E1D52E0DC0A5
:101D500004EF11E041E5C42E49E1D42E06C000EDA8
:101D600017E036ECC32E36E1D32E8091470288234C
:101D700061F0109247020E940A1E909345028093E0
:101D8000440210924902109248020E940A1EE091F9
:101D90004402F09145028E1B9F0B8F3F9F4750F4EA
:101DA0000E0F1F1F109345020093440284E492E03B
:101DB000F601099586E0E7E5F2E0DE011196019073
:101DC0000D928A95E1F7C0905902D0905A02009185
:101DD0005B0210915C021092590210925A0210920A
:101DE0005B0210925C02C11003C0DD2009F44FC0F9
:101DF00080915502909156020E94FB1D9C0190918A
:101E00005402992309F417C22333310508F43FC063
:101E10009F3F19F09F5F90935402CC2061F00E9485
:101E2000C1131C1414F09FEF01C091E0899F802D15
:101E3000112480935902DD2061F00E94C1131D140A
:101E400014F09FEF01C091E0899F802D11248093B1
:101E50005A02309159023323D1F020915A022223A1
:101E6000B1F045EB3403C0011124992319F090938C
:101E7000590202C0F092590265EB2603C0011124F9
:101E8000992319F090935A0202C0F0925A0201115C
:101E900003C0112309F44FC0809152029091530264
:101EA0000E94FB1D9C0190915102992309F4C8C125
:101EB0002536310508F43FC09F3F19F09F5F90938E
:101EC0005102002361F00E949F13101614F09FEF3F
:101ED00001C091E0899F802D112480935B02112322
:101EE00061F00E949F13111614F09FEF01C091E062
:101EF000899F802D112480935C0230915B023323F3
:101F0000D1F020915C022223B1F075EB3703C001C0
:101F10001124992319F090935B0202C0F0925B02A6
:101F200035EB2303C0011124992319F090935C022F
:101F300002C0F0925C028091590281110BC0809125
:101F40005A02811107C080915B02811103C0809108
:101F50005C0281110E94FE12CB82DC820D831E8303
:101F600086E0FE013196A7E5B2E001900D928A95D8
:101F7000E1F7E0914A03F0914B03309719F08AE2C0
:101F800093E009952FB7F8940091130490911204EF
:101F9000091718F480911404080F091B2FBFC12CD6
:101FA000D12C10E083E0682E712CAA24A394B12CCC
:101FB00024E0322EC016D10608F0B4C0809112047D
:101FC00090E06091140470E00E94332CE0911504BD
:101FD000F0911604E80FF91F408020904F0347EF5F
:101FE000441560F4F0924F0320E040E0642D81E05E
:101FF00090E00E94482120924F0382C047FE4FC0CC
:1020000064E0261631F040924C03B0925103A09246
:102010005003842D0E947A1C813031F080F0823090
:1020200059F0833049F034C080934F0320E040E002
:10203000642D81E090E027C080934F0361C070EF72
:102040004716E1F087EF481223C0209150033091EA
:102050005103C901B3010E941F2CFC01E65DFC4F36
:1020600042A2C9010196909351038093500320919D
:102070004E0340914D0360914C0305C030924F03D5
:1020800040924C0333C00E94482110924F0338C045
:1020900010924F03109251031092500331C022202E
:1020A00079F12091500330915103C901B3010E948D
:1020B0001F2CAC01FC01E65DFC4F42A2C901019658
:1020C000909351038093500341305105A1F0423069
:1020D0005105B1F420914E0340914D0360914C03A2
:1020E0000E94482180914F03843051F0B0925103F7
:1020F000A092500305C0E2E02E1202C020E0ECCF17
:102100002FB7F8948091120490E001966091140426
:1021100070E00E94332C809312042FBFFFEFCF1A80
:10212000DF0A48CF80916302909164020E94FB1DF8
:10213000209161022695269526952F7030E0821712
:10214000930798F10E940A1E9093640280936302A1
:1021500080915E02882349F190916002991F99272E
:10216000991F809161028770880F40915D0261E044
:10217000892B0E940D2190915E0280915D0297FF54
:102180000FC0282F30E0692F772761950CF47095E8
:10219000261737072CF410925D0210925E0205C0DC
:1021A000890F87FD8FE780935D020E94B51790919C
:1021B0006502891721F00E94B5178093650280910E
:1021C0002003843009F085CC809106018F708093C4
:1021D000E9009091E80090FF7CCC9091200394302E
:1021E00009F077CC8093E9002091F3008091F20010
:1021F00090E0922B892B09F46CCC8091E8008E77CB
:102200008093E8000E94F12864CC09BD19BD09B48F
:1022100000FEFDCF8091D8008F7D8093D800809103
:10222000E00082608093E0008091E00081FDFCCFBF
:102230000E94392755CC2D32314008F0EBCD27CE06
:102240002D32314008F03ACE76CE9091340292FF92
:102250000DC0282F2871283019F4877F846006C0AC
:10226000282F2471243011F48B7F886093FF0DC0D8
:10227000282F2871283119F4877E846106C0282F01
:102280002471243111F48B7E88612091350220FF66
:102290000DC0382F3871383019F4877F816006C03F
:1022A000382F3171313011F48E7F886021FF0DC0DD
:1022B000282F2871283119F4877E816106C0282FC4
:1022C0002171213111F48E7E886194FD877E0895FD
:1022D000EAE4F2E0438128E0421B08F440E021E018
:1022E000628181810C94421BEAE4F2E0438128E0A0
:1022F000420F08F44FEF21E0628181810C94421B70
:10230000EAE4F2E0628128E0621B08F460E021E088
:10231000438181810C94421BEAE4F2E0628128E06F
:10232000620F08F46FEF21E0438181810C94421B1E
:10233000EAE4F2E0818121E04381628188500C94DB
:10234000421BEAE4F2E0818121E043816281885FFF
:102350000C94421B80914A02282F269530E02115CB
:10236000310519F48170826005C02B32310524F0EB
:102370008170846580934A020895CF92DF92EF9234
:10238000FF926B017C010E94AA11B701A60188E0AF
:1023900090E0FF90EF90DF90CF900C948E2B809187
:1023A0004E02882319F0815080934E0260914A02B8
:1023B00070914B0280914C0290914D020C94BD1192
:1023C00080914E02833018F48F5F80934E026091AB
:1023D0004A0270914B0280914C0290914D020C94F4
:1023E000BD1190914A0290FF36C09170811102C0D8
:1023F000926006C08B3210F0946502C0880F982B53
:1024000090934A02662351F060914A0270914B0208
:1024100080914C0290914D020E94BD1160914A0240
:10242000669570E04BE050E08BE191E00E945C2CFF
:10243000892B19F01092500202C00E94641881E0AA
:102440008093470220E040914D0260914C028091C0
:102450004B020C94421B089580914A02869581504C
:1024600009F48AE261E00C94F11180914A028695A8
:102470008F5F8B3208F081E061E00C94F111EAE4A7
:10248000F2E083E0808311828FEF82838383148262
:1024900060817181828193810C94BD11AF92BF9252
:1024A000CF92DF92EF92FF920F931F93CF93DF9320
:1024B000E82EF62EE901E42FF0E0611106C0E7579F
:1024C000FE4FE4914E2F2E2F71C0062F10E0E757DC
:1024D000FE4F4491F42FC42ED12C26E0829FC001E0
:1024E00011242FEF30E0B9010E941F2C5BEA560344
:1024F000C001579F900D11248E0D911D8E0D911DC1
:10250000582F550F580FD901A01BB10BAC9DC0011E
:10251000AD9D900DBC9D900D1124E92FF59ED0012D
:102520001124AB2FBB277901EA1AFB0AEC9CD001DE
:10253000ED9CB00DFC9CB00D11245901A51AB108F9
:10254000A09E7001A19EF00CB09EF00C1124EF2C07
:10255000FF242E193F092C9D80012D9D100D3C9DBF
:10256000100D1124212F6230710591F048F461158E
:102570007105E1F061307105B9F4242F4B2F16C0BD
:102580006430710569F040F06630710579F00CC077
:10259000242F492FE12F0AC0492FEF2F2B2F06C0E0
:1025A000292FE42F412F02C0292FEB2F49832883A5
:1025B000EA83DF91CF911F910F91FF90EF90DF9011
:1025C000CF90BF90AF900895CF93DF9300D01F922C
:1025D000CDB7DEB790914A0290FF0AC09E012F5FEF
:1025E0003F4F0E944E124B8169818A810E94F11AED
:1025F0000F900F900F90DF91CF9108950E940A1EC7
:1026000020915902211104C020915A02222321F065
:10261000909356028093550220915B02211104C0D1
:1026200020915C02222321F0909353028093520266
:10263000E0913902F0913A02309749F082E08093BC
:1026400057020480F581E02D87E592E00994089512
:102650008D3E39F490915A0297FF35C010925A027C
:1026600059C08E3E29F490915A021916BCF32BC022
:10267000909159028F3E29F497FF25C0109259027C
:1026800049C0803F19F41916CCF31DC090915B022C
:10269000893F29F41916BCF410925B023BC08A3FB3
:1026A00019F497FF10C0F8CF8B3F39F490915C027A
:1026B00097FF09C010925C022DC08C3F21F49091CD
:1026C0005C021916BCF39FE0980F983080F421E06B
:1026D00030E0A90102C0440F551F9A95E2F7CA01E4
:1026E00080959091580289238093580213C08D3FA2
:1026F00021F4809117048E7F0BC08E3F21F48091CE
:1027000017048D7F05C08F3F29F4809117048B7FBC
:102710008093170480915902811106C080915A025A
:10272000811102C01092540280915B02811106C097
:1027300080915C02811102C0109251020895809133
:10274000170480FD16C081FD16C082FD18C080915F
:102750005102882391F0883290F428E0829FC001D2
:10276000112468E270E00E94332C862F672B29F039
:1027700007C082E0089584E0089581E0089588E02C
:1027800008958091170480FD14C081FD14C082FD5E
:1027900016C080915402882381F0843180F422E3B2
:1027A000829FC001112464E170E00E94332C862FC7
:1027B00008958CE0089589E1089585E0089582E305
:1027C00008958D3E21F40E94C113819504C08E3E70
:1027D00029F40E94C11380935A0208958F3E21F478
:1027E0000E94C113819504C0803F29F40E94C11347
:1027F000809359020895893F19F40E949F1305C0E0
:102800008A3F31F40E949F13819580935B02089563
:102810008B3F21F40E949F13819504C08C3F29F4C3
:102820000E949F1380935C0208959FE0980F983058
:1028300078F421E030E0A90102C0440F551F9A95B9
:10284000E2F7CA0190915802892B809358020895AB
:102850008D3F21F48091170481600BC08E3F21F4DD
:1028600080911704826005C08F3F29F4809117047E
:102870008460809317040895F894E82FE295EF7030
:10288000F0E031A1282F2F7081E090E001C0880F87
:102890002A95EAF7982F9095932391A392A1892BDB
:1028A00082A378940895AF92BF92CF92DF92EF9275
:1028B000FF920F931F93CF93DF93CAE2D1E036E3E9
:1028C000E32E32E0F32E4CE2A42E41E0B42E10E0D1
:1028D000CC24C394D12CBE018881F894E82FE295D2
:1028E000EF70F0E021A18F70A60102C0440F551FC8
:1028F0008A95E2F7CA01922F982B91A392A1809515
:10290000892382A3789400C0ECE2F1E020E030E07B
:1029100000E04191842F82958F7090E0DC019096C9
:102920008C9190E04F7002C0959587954A95E2F79B
:1029300080FD07C08C2D022E01C0880F0A94EAF793
:1029400001C080E0082B2F5F3F4F2430310509F78D
:102950002196FB0180810E943C14F0EAFA95F1F780
:10296000D7018C91081719F00C9381E001C080E029
:10297000182BBFEFEB1AFB0AAC16BD0609F0ABCF64
:10298000112349F081E080936B020E940A1E90930C
:102990006A028093690280916B02882391F0809192
:1029A000690290916A020E94FB1D069750F0809187
:1029B0003602809342028091370280934302109244
:1029C0006B0280916C0291E0980F90936C028111E0
:1029D00029C086E880937A0080EA80937B0080E4B7
:1029E00080937C0080917A00806480937A0080914B
:1029F0007A0086FDFCCF809178002091790090913B
:102A00007A009F7790937A0090E0922B23E095953F
:102A100087952A95E1F74FE7481B6091040182E012
:102A20000E940D21812FDF91CF911F910F91FF9077
:102A3000EF90DF90CF90BF90AF900895CF93DF934A
:102A4000E72FF0E0E80FF11DE80FF11DEE0FFF1F7B
:102A5000EE0FFF1FE60FF11DEE0FFF1FEC50FF4FB3
:102A6000C591D491CE01C238D10569F1B0F4C1331A
:102A7000D10509F475C048F4C932D10509F469C01B
:102A8000CA32D10509F473C085C0C533D10509F434
:102A900059C0C933D105B9F07DC0C33ED10571F12C
:102AA00038F4C03ED105B1F0C23ED10511F172C07B
:102AB000C63ED105B9F1C73ED105C9F1C43ED10525
:102AC00009F068C024C02091340220FD5DC021FDC2
:102AD0005BC060C02091340220FD50C020913502BF
:102AE00020FF51C18091340284FD4BC183EE90E000
:102AF0004AC12091340222FF46C1F4CF80913402B2
:102B000082FD3FC08091350280FD3EC0EBCF209119
:102B1000350221FF38C18091340284FD32C187EE35
:102B200090E031C12091340223FF2DC1F4CF809178
:102B3000340283FD2CC08091350281FFECCF84EEFE
:102B400090E021C12091340225FF1DC189E290E06F
:102B50001AC12091340225FF16C185E390E013C10C
:102B60002091340226FF0FC18AE290E00CC120912F
:102B7000340226FF08C181E390E005C189E390E0BB
:102B800002C182EE90E0FFC080EE90E0FCC086EED5
:102B900090E0F9C0C11551E5D50708F06CC0C1152A
:102BA00020E5D207F0F0CE01F4E096958795FA95EE
:102BB000E1F7282F23703C2F337081E090E002C0B2
:102BC000880F991F3A95E2F79C68922B2C2F2F7053
:102BD0002695269540E2249F90011124822B932B69
:102BE000D2C0C83ED10570F5C03ED10508F0CBC0BB
:102BF000C83AD105B8F4C53AD10550F02C2F255A62
:102C0000C22FD0E0C659DE4F888190E09064BBC0EF
:102C1000C130D10509F4B7C008F4B3C0249708F453
:102C2000B0C0B1C0CF3BD10508F0ABC02C2F285AA3
:102C3000C22FD0E0CC0FDD1FC359DE4F88819981B0
:102C40009464A1C0C11540E2D40760F4C11551E0FD
:102C5000D50708F098C0CD3ED10508F492C0CE014A
:102C6000906591C0C11580E4D80708F48AC0CE01F0
:102C70009F70906A88C0C11525E5D20708F040C052
:102C8000C11544E5D40728F09C2F8827846F906AEB
:102C90007AC0C11553E5D507A8F09E0123703327EC
:102CA00081E090E002C0880F991F2A95E2F72C2F4F
:102CB0002695269540E2249F90011124822B932B88
:102CC0009A6861C0C11582E5D80728F49C2F88272F
:102CD000816F906A58C09E012370332781E090E095
:102CE00002C0880F991F2A95E2F72C2F269526956A
:102CF00050E2259F90011124822B932B9C6843C0A6
:102D0000C11529E5D207B0F4C11548E5D40728F06C
:102D10009C2F8827806F906A36C0C11556E5D5076D
:102D200080F58C2F0E9425118F7190E0982F8827B5
:102D3000906229C0C1158AE5D80790F48C2F8F7056
:102D40000E9425119E0194E0369527959A95E1F70A
:102D50002F7030E0322F22273069A901482B0FC095
:102D6000CE0190568115904260F48D2F8F710E9494
:102D700025119E01332730628F71A901582BCA019A
:102D800002C080E090E0DF91CF9108950895CF9345
:102D9000DF93EC01EAE4F2E0438162818C810E94DE
:102DA000E4128C818F5F8C83DF91CF910895CF9354
:102DB000DF93EC01EC81F0E0E257FD4F4491EAE44F
:102DC000F2E0628181810E94E4128C818F5F8C83AA
:102DD000DF91CF9108951F93CF93DF93CDB7DEB7E7
:102DE00067970FB6F894DEBF0FBECDBF342F4B8B65
:102DF000252F5C8B6D8B7E8B8F8B4E895F8961114C
:102E00001092F50286E0FE013D96DF01982F1D929B
:102E10009A95E9F73D872E876F87598B488BDE019E
:102E2000179601900D928A95E1F7CE0107960E94C0
:102E30006D2581113EC086E0FE013796DE011196B8
:102E400001900D928A95E1F7FF81E8856A857B857F
:102E50006115710531F0EF3F31F481E0FF3F19F466
:102E600003C081E001C080E080FD23C02091BC024E
:102E700030E0C9010196877099274091ED0250E03A
:102E80008417950779F1F983EA837D836C8396E053
:102E9000929FD001939FB00D1124A354BD4FFE010A
:102EA000319601900D929A95E1F78093BC020E94B1
:102EB000972016E08091ED029091BC028917F9F0FD
:102EC000189FC001112483549D4F0E946D258823B3
:102ED000B1F08091ED0290E0019687709927809380
:102EE000ED02E8CF0E9439271092BC021092ED0249
:102EF000E6EBF2E086E0DF011D928A95E9F767963E
:102F00000FB6F894DEBF0FBECDBFDF91CF911F91FA
:102F1000089520919402309195022817390771F095
:102F20009093950280939402E0913902F0913A02D5
:102F3000309721F00084F185E02D099408952091C7
:102F40009202309193022817390771F090939302FF
:102F500080939202E0913902F0913A02309721F089
:102F60000680F781E02D09940895E0913902F091EF
:102F70003A02309721F00190F081E02D099480E031
:102F80000895EF92FF920F93CF93DF93C42FD22F28
:102F9000FC0182818823D1F040939E010E940A1E89
:102FA000909391028093900280E28C0F883008F019
:102FB0006DC0C77081E001C0880FCA95EAF7DF9144
:102FC000CF910F91FF90EF900C94592780919E0123
:102FD00048134BC080919002909191020E94FB1D7A
:102FE000883C910508F041C0CD17C9F080E28C0FF4
:102FF000883040F4C77081E001C0880FCA95EAF7B5
:103000000E944E2780E28D0F883048F481E09D2F8A
:10301000977001C0880F9A95EAF70E9459270933E3
:1030200019F0E12CF12C03C080E5E82EF12C802F63
:103030000E94CA27E114F10451F08FE99FE0019743
:10304000F1F700C0000091E0E91AF108F3CF802FFA
:103050000E94632780E28D0F8830C0F4D77081E032
:1030600001C0880FDA95EAF70AC080E28C0F883039
:1030700068F4C77081E001C0880FCA95EAF7DF9154
:10308000CF910F91FF90EF900C944E27DF91CF914D
:103090000F91FF90EF90089590914A0290FF04C025
:1030A0009695981740F003C0811105C090E09617DF
:1030B00010F40C94351261E00C94F111882311F096
:1030C000FA0101C0FB01099460914A02669570E023
:1030D0004BE050E08BE191E00E945C2C892B19F4CD
:1030E00081E0809350020E940A1E909345028093D3
:1030F0004402089580914A0280FF0AC0869A81B3F3
:103100008F7B91B390642FB7F894E0E7F2E00BC0A7
:10311000E0E7F2E0118210821282339632E0EC375F
:10312000F307C1F7EBCF32E0EC37F30789F03191C9
:1031300048E091BB000000C037FF81BB330F0000A7
:1031400000C000C000C081BB00C04A9591F7EBCF22
:103150002FBF8FE594E00197F1F700C000000895BC
:103160009F92AF92BF92CF92DF92EF92FF920F9316
:103170001F93CF93DF93FC01A280948081E084832E
:10318000EEE8F2E0B490EDE0F3E0E491CCE7D2E0D9
:10319000F0E7EF2EF2E0FF2ECC24CA94D12CEB19ED
:1031A0000E2F10E022E02A1530F080914B02888328
:1031B00080914C028983911003C01B821A8255C0F2
:1031C0008B818823F9F081508B832FEF829FC00180
:1031D00011246C8170E00E941F2CFB01FF27E25735
:1031E000FD4F8491E82FEB192FEFE29FC0011124CE
:1031F000B8010E941F2C80914D02689FB0011124DC
:103200007A8333C00E94582B20914D022695215875
:1032100030E0A901440F551F322F2227240F351FFC
:10322000232F33278217930704F582E08A1588F449
:103230000E94582BB6010E94332C88830E94582B81
:1032400020914C022695622F70E00E94332C280FAB
:1032500029831A8280914D02843120F0893C18F034
:1032600088EC01C084E18C838B8397014A8169815A
:1032700088810E944E12259623E0E20EF11C82E026
:10328000C039D80709F08ECFDF91CF911F910F91F0
:10329000FF90EF90DF90CF90BF90AF909F900C94F5
:1032A0007A18EF92FF920F931F93CF93DF938C01C5
:1032B000C0E7D2E0E12CF12CF8018481F2E0EF16B6
:1032C000F1041CF4882339F002C0811104C09E016E
:1032D00040914D0202C09E0140E060914C028091FD
:1032E0004B020E944E128FEFE81AF80A239694E0E0
:1032F000E916F10409F70E947A18F801848190E038
:103300000196817099278483DF91CF911F910F914E
:10331000FF90EF9008958F929F92AF92BF92CF92BD
:10332000DF92EF92FF920F931F93CF93DF93EC0105
:103330004C81042F10E09801D8010E94042C9B01BD
:10334000AC010E94CF2B6B017C01E0E2F0E0E01BBE
:10335000F10BA5E5B0E09B01AC010E94CF2B4B0126
:103360005C019F01DF010E944D2C9B01AC010E947A
:10337000DA2B9B01AC012C0D3D1D4E1D5F1DC501BF
:10338000B4010E94E22B822FF22E99E2921728F0CC
:1033900093E0299F900111240DC025E530E0281B02
:1033A0003109C901880F991F280F391F37FF02C043
:1033B0002F5F3F4F35952795122F109590E7C92E17
:1033C00092E0D92E00E085E5E82EEF18802F869553
:1033D00011F48E2D01C08F2D9601412F60914C026A
:1033E0000E944E120F5F83E0C80ED11C043071F7AB
:1033F0000E947A188C81811102C091E003C0803252
:1034000019F49FEF9093280190912801890F8C83E4
:10341000DF91CF911F910F91FF90EF90DF90CF90B0
:10342000BF90AF909F908F9008950F931F93CF936D
:10343000DF93C0E7D2E0FE01118210821282339640
:1034400082E0EC37F807C1F700E010E080916E02EF
:10345000082E000C990B0817190794F0809127018A
:10346000082E000C990B8017910754F09E01409193
:103470004D0260914C0280914B020E944E1203C09B
:10348000198218821A820F5F1F4F2396043011058C
:10349000E9F60E947A188091260190916E02980FA9
:1034A00090936E0220912701280F20932701121676
:1034B00014F493301CF0819580932601DF91CF9115
:1034C0001F910F910895CF92DF92EF92FF920F9389
:1034D0001F93CF93DF93FC01828180FF03C0DD2423
:1034E000DA9402C0DD24D394C0E7D2E000E010E01B
:1034F000198218821A8294E0E92EF12CC12C809155
:103500006D028C0D853014F0837002C087FD8C5FD6
:10351000082E000C990B0817190791F480914D02A1
:103520008E9DA0018F9D500D112455954795559561
:1035300047959E0160914C0280914B020E944E1271
:10354000CD0CF1E0EF1AF108D1F60F5F1F4F239673
:103550000430110569F60E947A1880916D0291E09D
:10356000D91206C0811102C083E006C0815004C098
:1035700090E001968370992780936D02DF91CF913F
:103580001F910F91FF90EF90DF90CF900895EF92F1
:10359000FF921F93CF93DF93EC0180E7E82E82E048
:1035A000F82E10E08C81970140914D0260914C0201
:1035B000810F0E944E12115C83E0E80EF11C1C3F4B
:1035C00089F70E947A189A818C8190FF02C08F5FE0
:1035D00001C081508C83DF91CF911F91FF90EF90BC
:1035E000089590914A0290FF0CC0E0E7F2E08183D9
:1035F00060834283339692E0EC37F907C1F70C946D
:103600007A1808950F931F93CF93DF9300D01F92E2
:10361000CDB7DEB78C0180916F0281110AC09E0187
:103620002F5F3F4F4FEF6FEF0E944E128A818093C2
:103630006F02F8018481813051F028F0823061F40A
:1036400040916F020AC080916F0240E007C0609114
:103650006F0240E080E003C040E080E060E00E9454
:10366000F11AF801848190E0019663E070E00E9415
:10367000332C84830F900F900F90DF91CF911F9187
:103680000F9108957F928F929F92AF92BF92CF92A7
:10369000DF92EF92FF920F931F93CF93DF9300D0AF
:1036A0001F92CDB7DEB7182FD62E042FC22E9091C1
:1036B0004A0290FF6CC0E92FE695AE2FB0E0A05D06
:1036C000BE4F8C9180934F029E7F923061F49E0199
:1036D0002F5F3F4F812F0E944E124B8169818A815B
:1036E0000E94F11A42C0823019F400914D023DC08F
:1036F000863019F410914B0238C08930D9F38931E2
:10370000A1F5E9512E2F2170722EE695F0E0E757D2
:10371000FD4F8590949030E7A32E32E0B32EE12C3C
:10372000F12C99248E9CC0018F9C900D9E9C900D35
:1037300011249695879596958795711002C0810FF3
:1037400003C0212F281B822F9501402F6D2D0E9431
:103750004E128FEFE81AF80A23E0A20EB11C84E0A3
:10376000E816F104F9F60E947A1810934B02D092F1
:103770004C0200934D02CC2051F060914A027091AE
:103780004B0280914C0290914D020E94BD110F900E
:103790000F900F90DF91CF911F910F91FF90EF90BD
:1037A000DF90CF90BF90AF909F908F907F900895C3
:1037B0008091FD0208950895089580E00895CF93C3
:1037C000DF9300D01F92CDB7DEB7909120039430E5
:1037D00019F589837B836A8382E08093E9008FEF08
:1037E0009091E800815095FD06C095ED9A95F1F70E
:1037F00000008111F5CF8091E80085FF0DC040E009
:1038000050E063E070E0CE0101960E944422809176
:10381000E8008E778093E8000F900F900F90DF9173
:10382000CF910895BC0184E00C94DF1BBC0183E0C0
:103830000C94DF1B22E02093E9002FEF3091E80089
:10384000215035FD06C035ED3A95F1F70000211104
:10385000F5CF2091E80025FF0BC040E050E066E086
:1038600070E00E9444228091E8008E778093E80007
:103870000895CF93DF9320912901222339F02091DD
:10388000340227FF03C060E222E002C068E021E0CA
:103890002093E9002FEF3091E800215035FD06C05C
:1038A00035ED3A95F1F700002111F5CF2091E800B0
:1038B00025FF1DC0EC0180912901811105C040E068
:1038C00050E068E070E003C070E040E050E0CE01FE
:1038D0000E9444228091E8008E778093E80080E285
:1038E000FE01AEEFB2E001900D928A95E1F7DF9113
:1038F000CF910895982F907F903BF1F038F4903954
:10390000D9F0903AC9F09038C9F416C0903D49F00A
:1039100018F4903C31F012C0903E71F0903F19F0D5
:103920000DC082E00895815F8F3040F4E82FF0E011
:10393000E55AFE4F8081089583E0089580E0089560
:10394000AF92BF92CF92DF92EF92FF920F931F93AD
:10395000CF93DF93CDB7DEB727970FB6F894DEBFCE
:103960000FBECDBF7E0125E0E20EF11C8C01085197
:103970001F4F80912003843009F085C080910B0196
:103980008F708093E9008091E80082FF7CC0809175
:10399000E80085FF78C00E94F12881111DC084E0F5
:1039A000C82ED12CCE0101965C0109C08091F10096
:1039B000D5018D935D01B1E0CB1AD10869F08091FA
:1039C000E80085FDF3CF8091E8008B778093E800D5
:1039D0000E94F128882399F38091E80085FD05C0B5
:1039E0008091E8008B778093E800DA808D2D0E942B
:1039F0007A1C282FDD828B818E838C818F8321110D
:103A00000FC08981843049F0873039F0863039F031
:103A1000853009F0AECF21E003C023E001C022E0F1
:103A200067018C2D8E19821708F0A3CFD601BD90A7
:103A30006D013FB7F894D8011196EC911197F0E021
:103A4000CF01019612966C9170E00E94332CD80140
:103A50004C9150E084179507A1F0D80113968D91F1
:103A60009C911497E80FF91FB08211968C911197D1
:103A700090E0019612966C9170E00E94332CF80150
:103A800081833FBFCECF27960FB6F894DEBF0FBE1F
:103A9000CDBFDF91CF911F910F91FF90EF90DF90FD
:103AA000CF90BF90AF900895DF92EF92FF920F9367
:103AB0001F93CF93DF9300D000D0CDB7DEB77B014B
:103AC000142FD22E4A832B830C83842F0E947A1CBE
:103AD00081111CC082E0E816F10471F083E0E81661
:103AE000F10421F0EA94EF2881F50BC0073F11F4AF
:103AF00087E00AC084E008C087EFD812FBCF86E0D9
:103B000003C0173FB9F785E0898303C012951F7082
:103B10001983809120038430C1F4809106018F7055
:103B20008093E90040E050E064E070E0CE0101964F
:103B30000E944422811109C08091E80085FD05C0E2
:103B40008091E8008E778093E8000F900F900F909F
:103B50000F90DF91CF911F910F91FF90EF90DF9029
:103B6000089581E08093E00080E28093D800109275
:103B7000C9008FE19EE40197F1F700C0000087E0E3
:103B800090EBDC018093190490931A04A0931B041A
:103B9000B0931C049CE088E10FB6F894A89580933C
:103BA00060000FBE90936000FFCF78941F920F9239
:103BB0000FB60F9211248F939F93AF93BF93809171
:103BC0003E0290913F02A0914002B09141020196C5
:103BD000A11DB11D80933E0290933F02A09340022D
:103BE000B0934102BF91AF919F918F910F900FBE03
:103BF0000F901F9018959C014FB7F89480913E024A
:103C000090913F02A0914002B09141024FBF821BB0
:103C1000930B08952FB7F89480913E0290913F0244
:103C2000A0914002B09141022FBF08951F920F92C0
:103C30000FB60F9211248F939F93AF93BF938091F0
:103C40003B02811113C080913E0290913F02A091EE
:103C50004002B09141024196A11DB11D80933E02E8
:103C600090933F02A0934002B0934102BF91AF9165
:103C70009F918F910F900FBE0F901F9018952091DC
:103C800029012223C9F02091340227FF15C0262FD5
:103C90002695269526952E31C8F4FC01E20FF11DDC
:103CA000677081E090E001C0880F6A95EAF780951F
:103CB0009281892382830895FC01069622816213F2
:103CC00001C012823196E817F907C1F708952091D3
:103CD00029012223C1F02091340227FF14C0262F8E
:103CE0002695269526952E3130F5FC01E20FF11D23
:103CF000677081E090E001C0880F6A95EAF79281D1
:103D0000892B82830895FC0132962FEF30E0419198
:103D1000641789F02F3F19F4411101C0232F3F5F31
:103D20003630A9F72F3F39F0FC01E20FF11D27FDD6
:103D3000FA95628308950895CF9384E090E00E94FD
:103D4000682BC82F82E290E00E94682B2C2F30E075
:103D5000A901582BCA01CF9108956AEE7EEF80E049
:103D600090E00E949A2B60E082E090E00E947C2B21
:103D700060E083E090E00E947C2B1092F8021092A9
:103D8000F9021092FA021092FB0260E084E090E0E7
:103D90000E947C2B60E082E290E00E947C2B60E03D
:103DA00085E090E00E947C2B60E086E090E00E943D
:103DB0007C2B6FEF87E090E00E947C2B40E050E08E
:103DC000BA0188E090E00E948E2B60E08DE090E0E8
:103DD0000E947C2B40E050E0BA0188E190E00E9414
:103DE0008E2B60E087E190E00E947C2B40E050E069
:103DF000BA018CE190E00E948E2B60E070E080E2DE
:103E000090E00E949A2B40E050E0BA0188E190E0F7
:103E10000E948E2B40E050E0BA018FE090E00E94BB
:103E20008E2B40E050E0BA0183E190E00C948E2BA1
:103E30008091F70281111092F70208959091F60295
:103E40008091F502892B2091F402982F922B909368
:103E500096028091F7028823D9F0892B80939602ED
:103E600080912901882331F08091340287FF02C0BC
:103E70008EE101C086E0E8E9F2E090E0815028F0B0
:103E800021912223D9F39F5FF9CF91110E94181F2E
:103E9000E0913902F0913A023097A9F0809129011E
:103EA000882359F08091340287FF07C080919602E1
:103EB0008093970285E0809396020280F381E02D43
:103EC00086E992E009940895CF93C0913502C2FB30
:103ED000992790F9981781F080FBC2F9C0933502B9
:103EE0006091340284E090E00E947C2B6C2F82E28F
:103EF00090E0CF910C947C2BCF910895BF92CF92FC
:103F0000DF92EF92FF920F931F93CF93DF938C0179
:103F1000C0903002D0903102E0903202F090330233
:103F20008091F8029091F902A091FA02B091FB02FF
:103F3000C82AD92AEA2AFB2ACFE1D0E0D701C60154
:103F40000C2E04C0B695A795979587950A94D2F73D
:103F500080FD04C0219790F7B12C07C0BC2EB8019A
:103F60008C2F0E941E150197A9F38B2DDF91CF9105
:103F70001F910F91FF90EF90DF90CF90BF90089529
:103F8000CF93DF93EC010E947E1FBE010E941E159D
:103F9000DF91CF910895990F990F890F682F66953A
:103FA00066956695982F977085E0689FB0011124FB
:103FB00040E050E080E0FB01E40FF51FE251FD4FCF
:103FC000208130E0092E02C0369527950A94E2F749
:103FD00021703327042E01C0220F0A94EAF7822BA6
:103FE0004F5F5F4F4530510531F70895990F990F95
:103FF000890FE82FE695E695E695877051E001C0B8
:10400000550F8A95EAF785E0E89FF0011124E25107
:10401000FD4F20E030E070E04081CB01022E02C075
:10402000969587950A94E2F7817081958427852378
:10403000842781932F5F3F4F2530310569F708951D
:104040006093300270933102809332029093330276
:104050000C941C270F931F9341E050E060E070E048
:1040600004C0440F551F661F771F8A95D2F74095ED
:104070005095609570958091300290913102A09199
:104080003202B09133028A019B01082319232A23AB
:104090003B23C901B8011F910F910C94202020915E
:1040A000F302809582238093F302982F977041F456
:1040B00030E0482F082E000C550B2417350721F44B
:1040C0009091350292FF07C08595859585950E9450
:1040D0002A201092F30208950F931F9341E050E0BD
:1040E00060E070E004C0440F551F661F771F8A957B
:1040F000D2F78091300290913102A0913202B091BA
:1041000033028A019B01082B192B2A2B3B2BC90157
:10411000B8011F910F910C9420206093F8027093C6
:10412000F9028093FA029093FB020C941C27809171
:10413000ED029091BC02891719F08F5F8770FBCF59
:1041400008950F931F93CF93DF938091BB028295C5
:104150008F7009F05DC08091B802882309F458C0BF
:104160008091ED021091BC026091B6027091B7028D
:10417000C091B902D091BA0291E06F3F09F090E08E
:10418000292F06E0811709F443C0209721F07F3FD3
:1041900021F030E003C031E001C0322F90E030FD6B
:1041A00034C0089FF001099FF00D1124DF01A354D2
:1041B000BD4F11963C911197371327C03C91361390
:1041C00024C012963C91129731111FC013964D9145
:1041D0005C9114974C1B5D0B483C5105B0F48091E9
:1041E000BB028F7080618093BB02EE53FD4F8081D4
:1041F0008F708061808386EB92E00E94FF02DF91E6
:10420000CF911F910F910C94972001968770BACF90
:10421000DF91CF911F910F9108950F93042F0F7786
:10422000262F2F778F70482F406BE0912A03F09153
:104230002B0363E070E08AE293E009950F91089503
:104240000F931F93611590E279073CF4611590EE8E
:10425000790734F09B01305E05C02FEF3FE302C0C9
:1042600020E030E08901000F012F001F110B119594
:104270002F77482F4F70406EE0912A03F0912B0367
:1042800063E070E08AE293E009951F910F91089531
:10429000CF92DF92EF92FF920F931F93CF93DF9312
:1042A00000D01F92CDB7DEB77C01162FD42EC22EC0
:1042B00080914F038430F9F4E0914403F091450379
:1042C000309709F4B7C0C701019763E070E00E941E
:1042D0001F2CCB01880F991F860F971F19834A83C4
:1042E000CB824E2D481B9E012F5F3F4FBC018AE2BF
:1042F00093E00995ACC082E0E816F10409F44FC0E0
:1043000083E0E816F10431F081E0E816F10409F0E9
:104310008DC078C0862F807F803AE1F050F48038DD
:10432000A1F0803909F086C0E0912E03F0912F03AF
:1043300025C0803EA1F0803FB9F0803B09F07AC0F3
:10434000E0912C03F0912D0319C0E0913003F0911E
:10435000310314C0E0913203F09133030FC0E091B8
:104360003403F09135030AC0623F09F063C0E09165
:104370003603F0913703309731F45CC0309709F47D
:1043800059C0123F21F42C2D4D2D62EF04C02C2D6D
:104390004D2D612F6F708AE293E0099558C0862FEA
:1043A000807F803D51F0803F69F0803C09F042C041
:1043B000E0913803F091390315C0E0913A03F09190
:1043C0003B0310C0633F29F4E0913C03F0913D03AF
:1043D00006C0613F79F5E0913E03F0913F033097CD
:1043E00039F428C0309731F1812F8D7F813F19F446
:1043F0004D2D612F03C04D2D612F6F708AE293E028
:10440000099525C0683F28F0E0914003F0914103F1
:1044100006C0663F79F4E0914203F0914303309780
:1044200049F0612F8AE293E0099511C084E0E81613
:10443000F104D8F4E0914603F0914703309739F046
:104440000C2D2D2D412FB7018AE293E00995E091C3
:104450004803F0914903309759F00C2D2D2D412F31
:10446000B7018AE293E0099503C0E12CF12CE2CF79
:104470000F900F900F90DF91CF911F910F91FF90B0
:10448000EF90DF90CF900895EF92FF920F931F93DC
:10449000CF93DF937C018B010E94F128811119C019
:1044A000E70101151105A1F08091E80085FD0AC022
:1044B0008091E8008E778093E8000E94F12888239D
:1044C00081F307C089918093F10001501109E9CF70
:1044D00080E0DF91CF911F910F91FF90EF900895B1
:1044E0001F93CF93DF93CDB7DEB7AA970FB6F8949B
:1044F000DEBF0FBECDBFE2E2F3E08091F100819319
:1045000023E0EA32F207C9F780912303833009F4EC
:1045100060C030F4813071F0823009F49AC0B1C0CB
:104520008A3009F486C08B3009F46BC0893009F0F9
:10453000A8C020C080912203813A09F0A2C08091D6
:10454000E800877F8093E8008091260390912703FD
:10455000892B21F460E28EEF92E003C060E080E0FE
:1045600090E070E00E94AE2A8091E8008B77809303
:10457000E80087C080912203813209F082C08091D7
:10458000260390912703029708F07BC08091E800F2
:10459000877F8093E8008091E80082FD05C08091CC
:1045A00020038111F8CF6DC02091F3008091F200BB
:1045B00090E0922B029729F48091F1008B7F81305B
:1045C00021F48091F1008093FD028091E8008B77C7
:1045D00054C080912203813A09F053C08091260390
:1045E00090912703892B09F04CC08091E800877FC8
:1045F0008093E8008091E80080FFFCCF8091290142
:1046000037C0809122038132E1F580912603909199
:104610002703892BB1F58091E800877F8093E8001C
:104620000E94242980912403809329010E94392724
:1046300028C080912203813221F58091E800877F94
:104640008093E8000E942429809125038093FC0236
:1046500018C080912203813AA1F48091E800877FFD
:104660008093E8008091E80080FFFCCF8091FC02FD
:104670008093F1008091E8008E778093E8000E949B
:1046800024298091E80083FFD7C180912203909173
:104690002303492F50E04A30510508F0CDC1FA01FB
:1046A000EE59FF4F0C94472C803821F0823809F0E6
:1046B000C3C108C080911E0390911F03992389F004
:1046C00082600FC0809126038F70873008F0B4C1DC
:1046D0008093E9008091EB0085FB882780F9109298
:1046E000E9009091E800977F9093E8008093F100B3
:1046F0001092F10066C1282F2D7F09F09DC18823FB
:1047000019F0823061F098C180912403813009F062
:1047100093C1933009F080E080931F032EC08091F5
:10472000240381112AC0809126038F702FEF280F58
:10473000263008F081C18093E9002091EB0020FF32
:104740001CC0933021F48091EB00806214C09091E2
:10475000EB0090619093EB0021E030E0A90102C0F2
:10476000440F551F8A95E2F74093EA001092EA0041
:104770008091EB0088608093EB001092E9008091BB
:10478000E800877F21C1811157C1109124031F7751
:104790008091E3008078812B8093E3008091E80092
:1047A000877F8093E8000E9424298091E80080FFA1
:1047B000FCCF8091E30080688093E300111102C078
:1047C00082E001C083E08093200336C180588230AC
:1047D00008F032C180912403909125038C3D53E071
:1047E000950779F583E08A838AE289834FB7F89445
:1047F000DE01139620E03EE051E2E32FF0E050931B
:104800005700E49120FF03C0E295EF703F5FEF7027
:104810008E2F90E0EA3010F0C79601C0C0968D93BD
:104820009D932F5F243149F74FBF8091E800877F28
:104830008093E8006AE270E0CE0101960E94AE2A01
:10484000AEC04091260350912703292F33272330F0
:104850003105A9F068F42130310509F4FCC022309B
:10486000310509F0E9C08FE990E0E4E8F4E044C0E4
:104870002132310521F12232310571F1DDC0992754
:1048800081309105A1F058F0029709F0D5C0E5E319
:10489000F5E0E4918E2F90E0E5E3F5E02AC0E7E64D
:1048A000F5E0E4918E2F90E0E7E6F5E022C0E1E547
:1048B000F5E0E4918E2F90E0E1E5F5E01AC04115B6
:1048C000510509F4CDC04130510509F0B5C089E06A
:1048D00090E0EFEAF4E010C04115510509F4C5C0BD
:1048E0004130510509F0A8C086EB90E0EEE8F3E016
:1048F00003C0009709F4A0C02091E800277F20930F
:10490000E80020912803309129038217930708F4C7
:104910009C0140E02115310589F180912003882315
:1049200009F43DC08530D9F18091E80083FD37C09E
:104930008091E80082FD2FC08091E80080FFEACFDF
:104940004091F3008091F20090E0942B2115310505
:1049500059F08830910540F444914093F10031962C
:10496000215031090196F2CF41E0089709F040E06B
:104970008091E8008E778093E800CCCF4111CDCFB5
:104980000AC080912003882351F0853041F0809146
:10499000E80083FD04C08091E80082FFF2CF80919F
:1049A000E8008B778093E80047C0803809F044C066
:1049B0008091E800877F8093E800809121038093B5
:1049C000F1008091E8008E778093E8000E9424290E
:1049D00033C0811131C08091240390912503992720
:1049E000029754F58091E800877F8093E80010914A
:1049F0002403109321030E942429111106C08091E1
:104A0000E30087FD02C081E001C084E080932003C1
:104A100042E061EC81E00E94432942E261EC82E0E5
:104A20000E94432942E361E883E00E94432942E374
:104A300061E884E00E9443298091E80083FF1AC066
:104A40008091E800877F8093E8008091EB0080628E
:104A50008093EB000FC082E190E0E3E2F5E04CCF01
:104A600089E090E0E6E9F4E047CF80E490E0E4E418
:104A7000F4E042CFAA960FB6F894DEBF0FBECDBFCA
:104A8000DF91CF911F9108950E94C01F292F2F7091
:104A9000E92FE295EF704E2F50E0FA013297EE3099
:104AA000F105B8F4E459FF4F0C94472C803F99F07E
:104AB00018F4883E70F40FC0843F59F40CC0883E4F
:104AC00050F0813F31F407C0822F869586958695F8
:104AD000089580E0089581E008959F92AF92BF927B
:104AE000CF92DF92EF92FF920F931F93CF93DF93BA
:104AF000CDB7DEB761970FB6F894DEBF0FBECDBF5E
:104B00008C0185E0F801DE011D9601900D928A95D9
:104B1000E1F7F80190818181E2803091B6026091E5
:104B2000B7024091B9025091BA024115510531F0D6
:104B30006F3F31F421E03F3F19F403C021E001C091
:104B400020E0F22FF1709F2E20FD23C1F801C380D9
:104B5000D48026EBA22E22E0B22EF090B802F6010D
:104B6000E41BF50BFF2009F4CEC02091BB02E83C0A
:104B7000F10508F099C0422F407F09F051C0681339
:104B800011C039130FC0FE2CE1100CC02F70206132
:104B90002093BB02C5010E94FF028091BB02F80175
:104BA000858337C1CD2831F08F3F31F421E09F3F1D
:104BB00019F403C021E001C020E020FD03C021E082
:104BC0002E2502C020E030E0F22FF170FF2E20FFF2
:104BD0001DC02091ED024091BC0256E0241709F45B
:104BE000F6C030E0529FF001539FF00D1124E354C2
:104BF000FD4F6181861306C06081961303C06281F8
:104C0000E61204C02F5F3F4F2770E8CFFE2CEE2046
:104C100009F4FFC08091BB0281608093BB0250C049
:104C2000681307C0391305C0E11003C0F8012583DC
:104C30008DC09D878E878D859E850E944425882303
:104C400069F1EE2059F12091BB02822F82958F707D
:104C500090E0029774F08091B6029091B702988725
:104C60008F831986DB86CA862C87CE0107960E9421
:104C7000FF0286E0F801A6EBB2E001900D928A9562
:104C8000E1F70E94A1200DC06817E1F09D878E8793
:104C90008D859E850E94442581111EC0C8010E94F9
:104CA000FF02FF24F394B5C0422F407F69F786EBE3
:104CB00092E00E94FF0286E0F50111928A95E9F7E1
:104CC000F12CA7C03913E2CFE110E0CFF801258322
:104CD000C8010E94FF0257C0EE2001F32091BB02E1
:104CE000822F82958F7090E002971CF28091B6021D
:104CF0009091B7029A8389831B82DD82CC822E83B6
:104D0000CE010196B4CFE83CF105E8F5FE2CEE208B
:104D100029F2681327C0391325C02091BB0220FD5A
:104D200018C0822F82958F70482F50E04115510591
:104D300081F0F80125834F30510541F08F5F982FA6
:104D40009295907F822F8F70892B8583C8010E9456
:104D5000FF0286E0F801A6EBB2E001900D928A9581
:104D6000E1F757C09D878E878D859E850E944425DB
:104D700081117FCF8091BB0281608093BB02C8010B
:104D80000E94FF0246C086E0F50111928A95E9F77C
:104D900040C0EE2009F482CF9D878E878D859E8549
:104DA0000E944425F82E882309F478CF86E0F80184
:104DB000A6EBB2E001900D928A95E1F78091B602E0
:104DC0009091B7020E94C01F0E94A12022C09D871F
:104DD0008E878D859E850E94C01F292F22952F705A
:104DE000223028F49F7039F0811105C00BC02430A7
:104DF00028F49F7049F4805E883020F0C8010E943A
:104E0000FF029F2CF92C05C0F8019581907F99F73E
:104E1000F9CF8F2D61960FB6F894DEBF0FBECDBFD0
:104E2000DF91CF911F910F91FF90EF90DF90CF9086
:104E3000BF90AF909F90089580E090E00E949F17F0
:104E400080E090E00E9489171092F5021092F4021F
:104E50000E941E1FE7E5F2E086E0DF011D928A95C1
:104E6000E9F71092540210925102109217040C9418
:104E7000FE121092F60280912901882331F0809170
:104E8000340287FF02C08EE101C086E0E8E9F2E06B
:104E9000DF011D928A95E9F70C941C27882341F0C5
:104EA00080959091F60289238093F6020C941E1F40
:104EB0000895882339F09091F602892B8093F602A9
:104EC0000C941E1F0895882309F463C0823869F486
:104ED0000E94B51781FF5DC069E386E992E00E94F8
:104EE000671E0E941E1F69E30EC0833891F40E9462
:104EF000B51780FF4EC063E586E992E00E94671E09
:104F00000E941E1F63E586E992E00E943F1E0C94FA
:104F10001E1F843869F40E94B51782FF3AC067E407
:104F200086E992E00E94671E0E941E1F67E4EBCF95
:104F30009CEF980F913A10F4682FE5CF90E2980F0C
:104F4000983088F4877021E030E0A90102C0440F56
:104F5000551F8A95E2F7CA0180959091F602892340
:104F60008093F602D4CF9BE5980F933020F480E035
:104F700090E00C949F1798E5980F973120F480E00B
:104F800090E00C9489178D3E20F00E9428130C9419
:104F9000FE120895CF93882309F4BEC0C82F82382B
:104FA000B1F40E94B51781FDB7C069E386E992E0CC
:104FB0000E94671E0E941E1F2FEF81EE94E0215079
:104FC00080409040E1F700C0000069E317C08338DB
:104FD000E1F40E94B51780FD9FC063E586E992E089
:104FE0000E94671E0E941E1F2FEF81EE94E0215049
:104FF00080409040E1F700C0000063E586E992E060
:105000000E943F1ECF910C941E1F8438B1F40E9461
:10501000B51782FD81C067E486E992E00E94671EB1
:105020000E941E1F2FEF81EE94E02150804090409F
:10503000E1F700C0000067E4E1CF8CEF8C0F813A0C
:10504000C0F5809129018823E1F08091340287FF27
:1050500018C0EC2FE695E695E695F0E0EA56FD4F90
:105060008281282F30E04C2F477081E090E002C011
:10507000880F991F4A95E2F782239323892B61F4C5
:1050800012C0E8E9F2E08EE992E02191C21721F026
:105090008E179F07D1F707C06C2F86E992E00E9418
:1050A0003F1E0E941E1F6C2F86E992E00E94671E21
:1050B000A9CF80E28C0F883068F4C77081E090E05F
:1050C00001C0880FCA95EAF79091F602892B809368
:1050D000F60298CFEBE5EC0FE33040F4F0E0E65950
:1050E000FE4F808190E0CF910C949F17E8E5EC0F84
:1050F000E73150F4F0E0EE0FFF1FE359FE4F8081DF
:105100009181CF910C948917CD3E30F08C2F0E9465
:10511000E113CF910C94FE12CF9108951F920F923C
:105120000FB60F9211242F933F934F935F936F937A
:105130007F938F939F93AF93BF93CF93DF93EF931F
:10514000FF93C091E900CF708091EC00D82FD1700F
:1051500080FDD0E81092E9008091F000877F809375
:10516000F00078940E9470221092E9008091F00083
:1051700088608093F000CD2BCF70C093E900FF9141
:10518000EF91DF91CF91BF91AF919F918F917F91DF
:105190006F915F914F913F912F910F900FBE0F90A4
:1051A0001F901895E8EDF0E080818E7F808310924B
:1051B000E2001092DA001092E100A0EEB0E08C91D3
:1051C00081608C9380818F77808319BCA7EDB0E0DC
:1051D0008C918E7F8C9380818F7E808310921804B7
:1051E00008952091E4003091E50095E64091EC00AF
:1051F000842F817040FF23C08091E80080FD1DC096
:1052000080912003882399F0853099F08091EB00FC
:1052100085FD11C04091E4005091E5002417350749
:1052200029F3915011F09A01E1CF84E0089582E0D2
:10523000089583E0089581E0089580E00895409105
:10524000E80042FFDDCF08958091220387FF11C05F
:105250008091E80082FD05C0809120038111F8CF84
:1052600011C08091E8008B770BC0809120038823C8
:1052700049F08091E80080FFF8CF8091E8008E77B8
:105280008093E8000895982F973068F59093E9008F
:10529000981739F07091EC002091ED005091F000DA
:1052A00003C0242F762F50E021FD02C09F5FECCF7A
:1052B0003091EB003E7F3093EB003091ED003D7F6D
:1052C0003093ED003091EB0031603093EB00709340
:1052D000EC002093ED005093F0002091EE0027FDAC
:1052E000E5CF80E008958F708093E90081E0089514
:1052F000CF92DF92EF92FF920F931F93CF93DF93A2
:10530000C8EDD0E088818F7E8883E7EDF0E0808172
:105310008160808384E082BF81E08093180488816B
:105320008E7F888302EE10E0F80110821092DA007E
:1053300081EEC82ED12CF601108288818F77888368
:1053400088818068888388818F7D888319BC1092CA
:1053500020031092210310921F0310921E0390EE5F
:10536000E92EF12CF70180818B7F80838881816019
:10537000888342E060E080E00E944329F60180815A
:105380008E7F8083F8018081816080838081886046
:105390008083F70180818E7F80838881806188830C
:1053A000DF91CF911F910F91FF90EF90DF90CF9001
:1053B00008951F920F920FB60F9211242F933F93CF
:1053C0004F935F936F937F938F939F93AF93BF930D
:1053D000EF93FF938091E10082FF09C08091E2008A
:1053E00082FF05C08091E1008B7F8093E100809176
:1053F000DA0080FF2AC08091D80080FF26C080910B
:10540000DA008E7F8093DA008091D90080FF18C087
:1054100080E189BD82E189BD09B400FEFDCF81E054
:10542000809320038091180481110FC00E94D2281C
:105430000E9478298091E20084608093E20005C098
:1054400019BC10922003109218048091E10080FF93
:1054500017C08091E20080FF13C08091E2008E7F30
:105460008093E2008091E20080618093E20080916D
:10547000D80080628093D80019BC85E08093200317
:105480008091E10084FF2EC08091E20084FF2AC059
:1054900080E189BD82E189BD09B400FEFDCF809124
:1054A000D8008F7D8093D8008091E1008F7E80931B
:1054B000E1008091E2008F7E8093E2008091E20023
:1054C00081608093E20080912103882311F084E0C1
:1054D00007C08091E30087FD02C081E001C083E046
:1054E000809320038091E10083FF27C08091E20038
:1054F00083FF23C08091E100877F8093E10082E0F9
:1055000080932003109221038091E1008E7F80938D
:10551000E1008091E2008E7F8093E2008091E200C2
:1055200080618093E20042E060E080E00E944329D5
:105530008091F00088608093F000FF91EF91BF911F
:10554000AF919F918F917F916F915F914F913F911B
:105550002F910F900FBE0F901F9018952091280348
:10556000309129032617370748F06115710539F482
:105570002091E8002E772093E80001C0B901FC01DA
:1055800020E06115710579F1809120038823F1F104
:105590008530F1F18091E80083FD3CC08091E80006
:1055A00082FD2EC08091E80080FFEBCF2091F300B8
:1055B0008091F20090E0922B6115710551F08830D6
:1055C000910538F421912093F10061507109019601
:1055D000F3CF21E0089709F020E08091E8008E7772
:1055E0008093E800CECF2111CFCF0AC08091200355
:1055F000882361F0853061F08091E80083FD0AC066
:105600008091E80082FFF2CF80E0089582E0089563
:1056100083E0089581E008958F929F92AF92BF92A8
:10562000CF92DF92EF92FF92CF93DF93EC016881EC
:1056300079818A819B81611571058105910521F42C
:1056400064E279ED8BE597E02DE133EF41E050E046
:105650000E94B02B49015A019B01AC01A7EAB1E4B9
:105660000E94CF2B6B017C01ACEEB4EFA50194013D
:105670000E94DD2BDC01CB018C0D9D1DAE1DBF1DDD
:10568000B7FF03C00197A109B04888839983AA8313
:10569000BB839F77DF91CF91FF90EF90DF90CF900A
:1056A000BF90AF909F908F9008950E940C2B08950B
:1056B00080E091E00E940C2B0895A0E0B0E0809380
:1056C000000190930101A0930201B093030108959A
:1056D000F999FECF92BD81BDF89A992780B50895BA
:1056E000A6E1B0E044E050E00C94A22BA8E1B0E0C9
:1056F00042E050E00C94A22B262FF999FECF92BDE8
:1057000081BDF89A019700B4021639F01FBA20BD86
:105710000FB6F894FA9AF99A0FBE08950396272FB8
:105720000E947D2B0E947C2B252F0E947D2B242FF5
:105730000C947D2B0196272F0E947D2B0C947C2BA3
:10574000DC01CB01FC01F999FECF06C0F2BDE1BD41
:10575000F89A319600B40D9241505040B8F7089530
:10576000052E97FB1EF400940E94C72B57FD07D00F
:105770000E94E22B07FC03D04EF40C94C72B5095EB
:105780004095309521953F4F4F4F5F4F089590952D
:105790008095709561957F4F8F4F9F4F08950E9420
:1057A000042CA59F900DB49F900DA49F800D911D7A
:1057B00011240895B7FF0C94CF2B0E94CF2B821B8E
:1057C000930B0895A1E21A2EAA1BBB1BFD010DC06D
:1057D000AA1FBB1FEE1FFF1FA217B307E407F507A1
:1057E00020F0A21BB30BE40BF50B661F771F881F7D
:1057F000991F1A9469F760957095809590959B0113
:10580000AC01BD01CF010895A29FB001B39FC001BB
:10581000A39F700D811D1124911DB29F700D811DDC
:105820001124911D0895991B79E004C0991F9617C2
:1058300008F0961B881F7A95C9F780950895AA1BD2
:10584000BB1B51E107C0AA1FBB1FA617B70710F06B
:10585000A61BB70B881F991F5A95A9F7809590959D
:10586000BC01CD01089597FB072E16F4009407D0D4
:1058700077FD09D00E941F2C07FC05D03EF49095BF
:1058800081959F4F0895709561957F4F0895EE0F14
:10589000FF1F0590F491E02D09940E94042C3323FE
:1058A00012F48A1B9B0B0C94572C0E94042CB7FFFC
:1058B0000895821B930B0895FC014150504030F035
:1058C00001900616D1F73197CF01089588279927BF
:0658D0000895F894FFCFDB
:1058D600010000003E038340000001044000000177
:1058E60000D81B391C1A1C161C121C01191A1B1C69
:1058F6001D1E1F20212201020101F0F13031323339
:105906000001020202020606060909090909090F31
:105916000F0F0F0F0F151515181919191919191930
:1059260019191923242525252525250203020000FA
:1059360001000101010101000101818283E200E908
:1059460000EA00B500B600B700CD008301CC008A9E
:105956000192019401210223022402250226022734
:0C596600022A02B300B4006F00700000C1
:00000001FF
